:020000021000EC
:10F8000011241FBECFEFD1E4DEBFCDBF12E0A0E0D8
:10F81000B2E0ECE9FFEF01E00BBF02C007900D92F0
:10F82000A831B107D9F722E0A8E1B2E001C01D92EA
:10F83000A63AB207E1F70E9451FD0E94BDFF0E9467
:10F84000AAFE81E090E008953BB740E10C9439FCBA
:10F850003BB70B0144270C9439FC3BB78BBFCB0162
:10F8600042E00C9439FC3BB78BBFCB0144E00C94D5
:10F8700039FCFC01416040935700E89511243BBFDF
:10F8800008959BB78BBFFB0186919BBF089580E0D5
:10F8900090E08093B2005091B6005B71E1F7019661
:10F8A0005091B2005456DAF30895869586958A955C
:10F8B0008823E9F70895CF92DF92EF92FF926C01CF
:10F8C000E12CF12CFE2CED2CDC2CCC24C701B60154
:10F8D0000E942DFC07B600FCFDCFC701B6010E94B7
:10F8E00033FC07B600FCFDCF0E9424FC07B600FCE9
:10F8F000FDCFFF90EF90DF90CF9008958F929F9271
:10F90000BF92CF92DF92EF92FF920F931F93CF930C
:10F91000DF938091A50280FF09C0E82FF0E0E15E4F
:10F92000FD4F9FEF96838F5F8093A5028091A50284
:10F93000882309F45BC0B12CC1E2D2E00F2EFAE1BA
:10F94000EF2EF2E0FF2EF02D0F2EFBE1CF2EF2E096
:10F95000DF2EF02D05EA12E088819981AA81BB8112
:10F96000892F9A2FAB2FBB274C01809118029091C1
:10F9700019028815990531F00E945BFC90921902DA
:10F980008092180288819981AA81BB81EB2DF0E0D9
:10F99000E15EFD4F2681AC01BD0141705527662710
:10F9A0007727452B81F0F601208360911A02709130
:10F9B0001B029927AA27BB2701970E9428FC07B69C
:10F9C00000FCFDCF02C0F701208388819981AA81C4
:10F9D000BB810196A11DB11D88839983AA83BB8336
:10F9E000B394F8018081B81608F4B6CFDF91CF91B7
:10F9F0001F910F91FF90EF90DF90CF90BF909F905D
:10FA00008F90089580911802909119020E945BFCDA
:10FA10000895E0911C02F0E0208122232CF426813D
:10FA2000FC01208381E0089580E00895CF93DF9367
:10FA3000DB01A8950097B1F0E0911C02F0E09F0176
:10FA40002A5F3F4F860F971FBF014D91E901488301
:10FA5000408146FFFDCFEB01488140644883A817F1
:10FA6000B90799F7DF91CF91089588EC80931C0234
:10FA700080ED8AB980EC8BB982E08093CC008093D2
:10FA8000C80086E08093CA0088E18093C900089589
:10FA90001AB8E0911C02F0E01482108212821182E6
:10FAA00008952F923F924F925F926F927F928F9222
:10FAB0009F92AF92BF92CF92DF92EF92FF920F93FD
:10FAC0001F93CF93DF93A895E0E6F0E080818861F3
:10FAD000808389E28083E6EBF0E08081806280832E
:10FAE00081E08093B100C8E8D3E188EC0E9455FC26
:10FAF0002197D9F78091660080931D02689499241C
:10FB000097F8812C0F2EF1E9AF2EBB24B394F02D82
:10FB1000C6E6D0E0662463940F2EF1E9CF2EDD24F3
:10FB2000D394E12CF12CF02D01E911E068947724B5
:10FB300071F80E9447FC823921E09207E0F02881A9
:10FB40002150288300001501412C512CAC0160E0AC
:10FB500070E0415951406109710924163506460685
:10FB600057061CF422E0821649F15C0121E9A21A31
:10FB700021E0B20A862C813921E09207C8F428815D
:10FB80002F5F288300001501412C512CB701A601DD
:10FB9000481B590B6109710924163506460657069C
:10FBA0001CF421E0821651F05801A81AB90A872CDA
:10FBB0008139914019F09A9409F0BBCF1092B100AD
:10FBC00087B3876087BBDF91CF911F910F91FF9023
:10FBD000EF90DF90CF90BF90AF909F908F907F90ED
:10FBE0006F905F904F903F902F90089580911D02ED
:10FBF0008093660008950F931F93CF93DF93E1E204
:10FC0000F2E080819181A281B381AA27BB27808302
:10FC10009183A283B3838091A502882319F125E201
:10FC200032E0EF0104E0E5EAF2E0D9011D919D0127
:10FC300088819981AA81BB81AC01BD014F5F5F4F73
:10FC40006F4F7F4F488359836A837B8392BD81BD09
:10FC500010BD0FBBF99AF999FECF80818150808346
:10FC60008111E3CFDF91CF911F910F9108950895F6
:10FC7000E0911E02F0E0EE0FFF1FEE0FFF1FEE0FF0
:10FC8000FF1FE05FFD4F0280F381E02D09950E9488
:10FC9000F6FD08951F93CF93DF9300D000D0CDB72A
:10FCA000DEB712E014BD84EB87BD0E9435FD16BCA3
:10FCB00015BB85E085BD1AC0CE0104960E9409FDE2
:10FCC0008823A1F049815A816B817C81423B95EA6E
:10FCD000590795E669079BE4790769F0452F562F88
:10FCE000672F772749835A836B837C83A99BE4CF53
:10FCF0000E9448FD80E010921E0215BC14BC17BC87
:10FD000016BC15BA0F900F900F900F90DF91CF9106
:10FD10001F9108951F93CF93DF93EC01162FE0916D
:10FD20001E02F0E0EE0FFF1FEE0FFF1FEE0FFF1F92
:10FD3000E05FFD4F0480F581E02DCE010995811132
:10FD400002C01111ECCFDF91CF911F9108950E9455
:10FD500016FD08950F2EF1E2AF2EF2E0BF2EF02D2A
:10FD6000C5EAD2E0F12C6894CC24C2F80F2EF3E05F
:10FD7000DF2EF02D6894EE24E1F861E08FE192E04F
:10FD80000E948AFE80911F028335B9F70FE112E0CD
:10FD9000D8011C9211968C9361E0C8010E948AFEE2
:10FDA000F801808191818333F3E59F07F1F048F4F6
:10FDB000803313E5910708F45BC08233934598F0D4
:10FDC00016C0873333E5930781F028F485339345D4
:10FDD00009F04EC008C08833E3E59E0741F089333F
:10FDE000934509F045C09E2C03C09C2C01C09D2C5E
:10FDF00061E0CE010E948AFE8880282D30E0892DA6
:10FE000090E08F579F4F821793070CF4AFC0882D57
:10FE1000815089198883992089F07F2C9A94892DA3
:10FE200090E08C010F5D1D4F61E0C8010E948AFEC9
:10FE3000D8018C91780E9110F1CF01C07F2C870CE6
:10FE40009F2C092D10E061E0C8018B5D9D4F0E9441
:10FE50008AFEF801E15EFD4F8681880E93948881C9
:10FE6000891578F781E0BFEF8B1619F08F2D01C04F
:10FE70008F2D882309F47AC080911F02909120026F
:10FE80008033E3E59E0721F08533F3E59F0739F4DE
:10FE900060E072E084E090E00E94A7FE6ECF87539E
:10FEA0009345039780F40E9402FD0E9437FE60E0B4
:10FEB00072E084E090E00E94A7FE0E9438FED50127
:10FEC000ED91FC910995F501408151816281738129
:10FED0008091040290910502A0910602B091070260
:10FEE000481759076A077B0739F460E072E084E03D
:10FEF00090E00E94A7FE41CF409304025093050278
:10FF0000609306027093070288818A019B01080FA3
:10FF1000111D211D311DD901C8018130984FA1400B
:10FF2000B10518F40E947EFC0CC0411551056148D2
:10FF3000710538F468E072E084E090E00E94A7FE6A
:10FF40001CCFF50180819181A281B381A158B109B3
:10FF500081159041A105B10510F40E94FBFD60E000
:10FF600072E084E090E00E94A7FE07CF68E072E0B4
:10FF700084E090E00E94A7FE00CF0E944AFE882302
:10FF800039F06CE072E084E090E00E94A7FE0895F2
:0CFF90000E9438FEE0E0F0E009950895C2
:10FF9C004D5A9AB4FFFFFFFF2D595AB269D3D2269E
:08FFAC0035FD48FD09FD16FDBD
:040000031000F800F1
:00000001FF
